:08000000803102288731DD2F59
:10000C000134003441019A01033098009D01843081
:10001C0093000800F2007208F0000330F036890BF0
:10002C00142870080139F100F10CF10C40010F0893
:10003C0071067F3971068F007208F0000230F036BD
:10004C00890B252870080139F100F10EF10DF10D25
:10005C000F087106BF3971068F0072360139F00036
:10006C00F00EF00D0F087006DF3970068F00720865
:10007C000139F000F00E0F087006EF3970068F0092
:10008C001014C8300032890B482840011010C830B9
:10009C000032890B4E28080003104001560D570DF5
:1000AC00DD005D08031D5B285C2865280030D70047
:1000BC000030D6000030D5000030D400C2285408DF
:1000CC00D8005508D9005608DA005708DB001F3055
:1000DC00DB36DA0CD90CD80C890B6E285808DC00EE
:1000EC00D617FF30D405FF30D505FF30D6050030CC
:1000FC00D7059630DD02DD1F842885289D285D08F4
:10010C00803A973E03188B288C288D285C28013068
:10011C00D736D60CD50CD40C890B8E280130D800D0
:10012C005808DD07031D9B289C288D28B2282030F9
:10013C005D02031CA228A328AD285C280130D4350D
:10014C00D50DD60DD70D890BA5280130DD025D0824
:10015C00031DB128B228A4285C080319B628B728B7
:10016C00C228D409D509D609D709D40A0319D50A46
:10017C000319D60A0319D70A08008D31CB25803113
:10018C0070084001A2007108A3008D31CB2580318D
:10019C00710840012306031DD52870082206031D93
:1001AC00D828D92849298D31CB25803171084001B7
:1001BC00A5007008A4000A30F0000030F1002508FA
:1001CC00F3002408F2008E31D026803171084001F2
:1001DC00AA007008A9000A30F9000030FA002A08B9
:1001EC00FC002908FB008F314D2780317908400134
:1001FC00A6000A30F9000030FA000A30F000003096
:10020C00F1002A08F3002908F2008F31A127803170
:10021C007108FC007008FB008F314D278031790884
:10022C004001A7000A30F9000030FA006430F000F9
:10023C000030F1002A08F3002908F2008F31A127C1
:10024C0080317108FC007008FB008F314D27803124
:10025C0079084001A8000830F70002308D31DE2506
:10026C00803140012808303E8E31202680314001FB
:10027C002708303E8E312026803140012608303E42
:10028C008E31202680310800F800780803194F2998
:10029C0050296429F31F5329542964297009FA0041
:1002AC007109FB007209FC007309FD00FA0A0319BD
:1002BC00FB0A0319FC0A0319FD0A6C297308FD00DB
:1002CC007208FC007108FB007008FA0073087204D5
:1002DC0071047004031D732974297D290030F30007
:1002EC000030F2000030F1000030F000F3299630BD
:1002FC00F9008B290130F4007408F9070130FD3640
:10030C00FC0CFB0CFA0C890B8529FE307D05031DBA
:10031C00902991298029A5290130F4007408F90746
:10032C000130FA070030FB3D0030FC3D0030FD3D54
:10033C000130FD36FC0CFB0CFA0C890B9F29FF30AD
:10034C007D05031DAA29AB299229B5290130F90293
:10035C000130FA35FB0DFC0DFD0D890BAF29FC1B93
:10036C00B829B929BF29023079020318BE29BF293F
:10037C00AC297918C229C329CB29FF30FA05FF30E3
:10038C00FB057F30FC05FF30FD050310F90C7908E7
:10039C00F400F501F601F7011830F435F50DF60D02
:1003AC00F70D890BD3297408FA047508FB04760839
:1003BC00FC047708FD0478080319E529E629EB29E4
:1003CC00F31FE929EA29EB29FD177D08F3007C08C6
:1003DC00F2007B08F1007A08F00008008D31B82596
:1003EC00813170084001DE007108DF008D31B825C5
:1003FC008131710840015F06031D062A70085E06F4
:10040C00031D092A0A2AB52A8D31B82581317108B4
:10041C004001E1007008E0004E010D1C162A172A5D
:10042C00B52A0D1040016008F0006108F100F201DE
:10043C00F301003081314A21813173084001A7005A
:10044C007208A6007108A5007008A4004430A3002F
:10045C007F30A200C030A1000030A0008331F8230F
:10046C00813140012308C1002208C0002108BF00CF
:10047C002008BE004230BD00C630BC000030BB00BE
:10048C000030BA008531A225813140013D08D700EA
:10049C003C08D6003B08D5003A08D40080315220E5
:1004AC00813140015508E7005408E6000A30F80095
:1004BC000030F9006708FB006608FA008E319C26B4
:1004CC00813179084001E3007808E2000A30F80035
:1004DC000030F9000A30F0000030F1006708F3003A
:1004EC006608F2008E31D02681317108FB0070084D
:1004FC00FA008E319C26813179084001E50078089C
:10050C00E400A82A0C128C1600306407840010300A
:10051C00653D8038850000088E000230EB0000300D
:10052C00EC00B52A0C168C120030620784001030D7
:10053C00633D8038850000088E000130EB000030F0
:10054C00EC00B52A6C08003A0319AD2AB52A6B08E1
:10055C00013A0319882A033A0319982AB52A080084
:10056C008E3138268231803108208231203086004D
:10057C0001308700A030840000308500113040012C
:10058C00E80016001A00E80BC72AA03086000130DC
:10059C008700B1308400003085001130E80016006F
:1005AC001A00E80BD52A8E3176268231F701F70A2C
:1005BC0001308D31DE2582314001E901EA01F32A57
:1005CC006908A03E8600870101088E312026823101
:1005DC0001304001E9070030EA3D6908A03E860081
:1005EC0087010108031DFB2AFC2AE62AF701F70AFA
:1005FC0002308D31DE2582314001E901EA01132BF5
:10060C006908B13E8600870101088E3120268231AF
:10061C0001304001E9070030EA3D6908B13E86002F
:10062C0087010108031D1B2B1C2B062B8D181F2B60
:10063C00202B8A2B4B30860001308700C23084007F
:10064C00003085000D30E80016001A00E80B2A2B4C
:10065C0058308600013087006130840001308500FD
:10066C000930E80016001A00E80B382B8E313826BA
:10067C0082318E3176268231F701F70A01308D31C5
:10068C00DE2582314101E901EA01592B6908C23E9C
:10069C008600870101088E3120268231013041010C
:1006AC00E9070030EA3D6908C23E8600870101086F
:1006BC00031D612B622B4C2BF701F70A02308D3195
:1006CC00DE2582314101E901EA017A2B6908613E9C
:1006DC0086000130870001088E31202682310130DE
:1006EC004101E9070030EA3D6908613E86000130AE
:1006FC0087000108031D832B842B6C2B40018C017C
:10070C008131F4218231862B0D198D2B8E2B1C2BD4
:10071C003E30860001308700CF30840000308500E9
:10072C000D30E80016001A00E80B982B31308600CB
:10073C0001308700DC308400003085000D30E8008B
:10074C0016001A00E80BA62B8E31382682318E311A
:10075C0076268231F701F70A01308D31DE258231A0
:10076C004101EB01EC01C72B6B08CF3E86008701E2
:10077C0001088E312026823101304101EB07003017
:10078C00EC3D6B08CF3E860087010108031DCF2B83
:10079C00D02BBA2BF701F70A02308D31DE258231CE
:1007AC004101EB01EC01E72B6B08DC3E8600870175
:1007BC0001088E312026823101304101EB070030D7
:1007CC00EC3D6B08DC3E860087010108031DEF2B16
:1007DC00F02BDA2B40018C018031C3208231F22BBB
:1007EC0080310228400127088039B1002735B80034
:1007FC00A61F012C022C032C381438080319072CC3
:10080C00082C182C380A031D0C2C0D2C152C003020
:10081C00A7000030A6000030A5000030A400A617E9
:10082C00A701202C0030A7000030A6000030A50046
:10083C000030A40023088039A8002808B10623350D
:10084C00B900A21F2A2C2B2C2C2C39143908031973
:10085C00302C312C412C390A031D352C362C3E2CD6
:10086C000030A3000030A2000030A1000030A00036
:10087C00A217A301492C0030A3000030A2000030C5
:10088C00A1000030A0002308220421042004031D31
:10089C00502C512C6A2C0030A7000030A6000030E0
:1008AC00A5000030A4008030A6047F30A7043108D6
:1008BC00A8002808A7042708A3002608A2002508DA
:1008CC00A1002408A000A12D3808031D6E2C6F2C4C
:1008DC00782C0030A3000030A2000030A1000030C2
:1008EC00A000A12D3808A800A9012908AB003908DF
:1008FC002802AA00031CAB032A087F3EB20000307A
:10090C002B3DB3002708B0002608AF002508AE0029
:10091C002408AD000030A7000030A6000030A50070
:10092C000030A4000030B7000030B6000030B50035
:10093C000030B400B901E02C39080319A62CA72CFF
:10094C00C12C0130AD35AE0DAF0DB00D890BA82CFF
:10095C000130A435A50DA60DA70D890BAF2CB71F23
:10096C00B82CB92CBA2C24140130B435B50DB60DF5
:10097C00B70D890BBB2C23083002031DCF2C22088A
:10098C002F02031DCF2C21082E02031DCF2C200873
:10099C002D02031CD22CD32CDC2C37172008AD02D3
:1009AC002108AE3B2208AF3B2308B03B0130A80026
:1009BC002808B9071A303902031CE52CE62CA22CA6
:1009CC0030082F042E042D040319ED2CEE2C072DCA
:1009DC003414072D0130A435A50DA60DA70D890BD8
:1009EC00F12CB71FFA2CFB2CFC2C24140130B43541
:1009FC00B50DB60DB70D890BFD2CFF30B207FF30CE
:100A0C00B33DA61F0A2D0B2DF02CB901B71F0F2DCE
:100A1C00102D2C2DFF303405A800FF303505A90012
:100A2C00FF303605AA007F303705AB002B082A04AF
:100A3C00290428040319232D242D272DB901B90AC3
:100A4C002C2D241C2A2D2B2D2C2D242D390803194B
:100A5C00302D312D592D0130A4070030A53D00302B
:100A6C00A63D0030A73D271C3C2D3D2D592D2408BB
:100A7C00A8002508A9002608AA002708AB00013009
:100A8C00AC00AB37AA0CA90CA80CAC0B472D2B084F
:100A9C00A7002A08A6002908A5002808A4000130F0
:100AAC00B2070030B33D3308803AA80080302802EA
:100ABC00031D622DFF303202031C652D662D732D34
:100ACC00FF304001B2000030B3000030A70000300E
:100ADC00A6000030A5000030A40040013308803A85
:100AEC00A80080302802031D7D2D0130320203182E
:100AFC00802D812D8D2D4001B201B3010030A70056
:100B0C000030A6000030A5000030A400B101400167
:100B1C003208B800381C932D942D962DA6179A2DBB
:100B2C007F30A8002808A6053836A7003108A80091
:100B3C002808A704612C080040013D088039C70033
:100B4C003D35CD00BC1FAB2DAC2DAD2D4D144D083E
:100B5C000319B12DB22DC12D4D0A031DB62DB72D84
:100B6C00BF2D0030BD000030BC000030BB00003099
:100B7C00BA00BC17C92D0030BD000030BC000030DD
:100B8C00BB000030BA0041088039C2004208C706D9
:100B9C004135CC00C01FD32DD42DD52D4C144C0871
:100BAC000319D92DDA2DE92D4C0A031DDE2DDF2D6D
:100BBC00E72D0030C1000030C0000030BF00003015
:100BCC00BE00C017F12D0030C1000030C000003055
:100BDC00BF000030BE004C080319F52DF62DFB2D7F
:100BEC004D08031DFA2DFB2D042E0030BD000030E6
:100BFC00BC000030BB000030BA00DC2F3A08F0001B
:100C0C0040088E315326853171084001D30070089D
:100C1C00D2005208C200C301C401C5014508CB0073
:100C2C004408CA004308C9004208C8005308C2005F
:100C3C00C301C401C5014508D1004408D0004308D4
:100C4C00CF004208CE003B08F0003F088E315326FF
:100C5C00853171084001D3007008D2005208C200DF
:100C6C00C301C401C5014208C8074308C93D440873
:100C7C00CA3D4508CB3D5308C200C301C401C501A0
:100C8C004208CE074308CF3D4408D03D4508D13D2E
:100C9C003C08F0003E088E31532685317108400126
:100CAC00D3007008D2005208C200C301C401C501B0
:100CBC004208C8074308C93D4408CA3D4508CB3D16
:100CCC005308C200C301C401C5014208CE07430842
:100CDC00CF3D4408D03D4508D13D0830C835C90D3D
:100CEC00CA0DCB0D890B742E3B08F0003E088E31DB
:100CFC005326853171084001D3007008D200520888
:100D0C00C8075308C93D0030CA3DCB3D3A08F00036
:100D1C003F088E315326853171084001D30070088D
:100D2C00D2005208C8075308C93D0030CA3DCB3D1C
:100D3C000830C835C90DCA0DCB0D890B9F2E3A084A
:100D4C00F0003E088E315326853171084001D300E6
:100D5C007008D2005208C8075308C93D0030CA3D7C
:100D6C00CB3D3B08F00040088E315326853171088D
:100D7C004001D3007008D2005208CE075308CF3D73
:100D8C000030D03DD13D3C08F0003F088E31532659
:100D9C00853171084001D3007008D2005208CE078B
:100DAC005308CF3D0030D03DD13D3C08F000400809
:100DBC008E315326853171084001D3007008D20062
:100DCC005208C2005308C300C401C5010830C23523
:100DDC00C30DC40DC50D890BED2E4208CE0743087B
:100DEC00CF3D4408D03D4508D13D4808C2004908D4
:100DFC00C3004A08C4004B08C5001830C536C40CE3
:100E0C00C30CC20C890B042F4208CE074308CF3DFC
:100E1C004408D03D4508D13D0830C835C90DCA0D30
:100E2C00CB0D890B132F4D084C07C200C301C30D0A
:100E3C004208823ED200FF30433DD3003C2F0130AC
:100E4C00CE35CF0DD00DD10D890B262FCB1F2F2FCB
:100E5C00302F312F4E140130C835C90DCA0DCB0DB2
:100E6C00890B322FFF30D207FF30D33DD01F3F2FDD
:100E7C00402F252FCC01CB1F442F452F612FFF3046
:100E8C004805C200FF304905C300FF304A05C400C5
:100E9C007F304B05C5004508440443044204031944
:100EAC00582F592F5C2FCC01CC0A612F4E1C5F2F71
:100EBC00602F612F592F4C080319652F662F8E2F29
:100ECC000130CE070030CF3D0030D03D0030D13D59
:100EDC00511C712F722F8E2F4E08C2004F08C30069
:100EEC005008C4005108C5000130C600C537C40CF9
:100EFC00C30CC20CC60B7C2F4508D1004408D00093
:100F0C004308CF004208CE000130D2070030D33D59
:100F1C005308803AC20080304202031D972FFF30E5
:100F2C005202031C9A2F9B2FA52F7F304001D1001A
:100F3C008030D0000030CF000030CE00D02F4001E8
:100F4C005308803AC20080304202031DAF2F01309B
:100F5C0052020318B22FB32FBE2F00304001D10024
:100F6C000030D0000030CF000030CE00C701D02FB1
:100F7C0040015208CD00FF30CE05FF30CF057F3049
:100F8C00D0050030D1054D1CCC2FCD2FCE2FD01736
:100F9C004D36D1004708C2004208D1045108BD00AB
:100FAC005008BC004F08BB004E08BA000800803146
:100FBC0006208731EB00803107208731EC000C30A4
:100FCC0084008F308500203086000130870041304E
:100FDC008D31A1258731A73084008D308500A0305C
:100FEC0086000130870011308D31A12587314001F9
:040FFC008231B62A5E
:101B240001308E3108268D31080028308E31082688
:101B34008D3108000C308E3108268D310800FE00EE
:101B440012001E00FE0BA22D003453343334203413
:101B540066346F34723420345734613474346534E9
:101B6400723420344C3476346C3400340330410104
:101B74009E000032410113141318C12DC22DBE2D35
:101B84000D08F3000C08F2007308F1007208F0006D
:101B940008000D3041019E00003241011314131856
:101BA400D42DD52DD12D0D08F3000C08F2007308A7
:101BB400F1007208F0000800F8007803031DE32D1B
:101BC400E42DE82D7708FF3EF900EB2D77083F3E22
:101BD400F9007908803E8E3108268D310800F9001D
:101BE4000830FA007903031DF82DF92DFA2D7A1522
:101BF4007703031DFE2DFF2D032E0330F800780814
:101C0400FA047A088E3108268D310800F600760829
:101C1400F3000430F336890B0C2E73080F39F400EB
:101C240076080F39F50040019010740880311020B7
:101C34008E317508803110208E310800F600760848
:101C4400F3000430F336890B242E73080F39F400A3
:101C540076080F39F5004001901474088031102083
:101C64008E317508803110208E3108000A307E01D3
:101C7400B800CA304001910020307E01C300FE301C
:101C8400400192007E01CE01400193017E01D90101
:101C94000F30400194007E01E401EC3040019500D6
:101CA4000800F800F401F5017008F200F30172086D
:101CB400F6007308F700781C602E612E652E7608F6
:101CC400F4077708F53D0130F635F70D890B662EDC
:101CD4000310F80C7808031D702E712E5D2E750804
:101CE400F1007408F00008001430FB007A30890B0E
:101CF400792EFB0B792E03308E3108268E31073076
:101D0400FB007D30890B842EFB0B842E00000230F7
:101D14008E3108268E318D3197258E31F7010130B1
:101D24008D31F1258E318D319C258E318D31922569
:101D34008E310800780879040319A12EA22ECB2E27
:101D4400FD01FD0AAE2E0130F835F90D890BA62EE2
:101D54000130FC007C08FD07F91FB12EB22EA52E20
:101D640079087B02031DB82E78087A02031CBB2E67
:101D7400BC2EC02E7808FA027908FB3B0130F936F4
:101D8400F80C890BC12E0130FD02031DCA2ECB2E87
:101D9400B22E7B08F9007A08F8000800F501F60174
:101DA400700871040319D72ED82E072FF701F70AEC
:101DB400E42E0130F035F10D890BDC2E0130F400F6
:101DC4007408F707F11FE72EE82EDB2E0130F535F6
:101DD400F60D890BE92E71087302031DF32E7008AA
:101DE4007202031CF62EF72EFC2E7008F202710804
:101DF400F33B75140130F136F00C890BFD2E0130E4
:101E0400F702031D062F072FE82E7608F100750848
:101E1400F00008005034723465347334733453342E
:101E24003234203466346F3472342034543465349C
:101E34006D34703400342034203420342034203481
:101E44002034203420342034203420342534003409
:101E54005734613474346534723420344C3465340A
:101E6400763465346C343A340034543465346D3427
:101E74007034653472346134743475347234653456
:101E84003A340034203420342034203420342034B4
:101E94002034203400344001A101FC1F522F532F61
:101EA4005A2FFB09FC09FB0A0319FC0AA101A10A28
:101EB400FA1F5D2F5E2F632FF909FA09F90A031936
:101EC400FA0A79087A040319682F692F922FA0015E
:101ED400A00A752F0130F935FA0D890B6D2F0130E9
:101EE400FD007D08A007FA1F782F792F6C2F7A0840
:101EF4007C02031D7F2F79087B02031C822F832F12
:101F0400872F7908FB027A08FC3B0130FA36F90C7A
:101F1400890B882F0130A002031D912F922F792F56
:101F240021080319962F972F9C2FFB09FC09FB0A04
:101F34000319FC0A7C08FA007B08F9000800F60182
:101F4400F11FA52FA62FAD2FF009F109F00A0319EF
:101F5400F10AF601F60AF31FB02FB12FBA2FF209D6
:101F6400F309F20A0319F30A0130F4007408F606BF
:101F7400F701F801700871040319C12FC22FF12F62
:101F8400F501F50ACE2F0130F035F10D890BC62F7E
:101F94000130F4007408F507F11FD12FD22FC52F9B
:101FA4000130F735F80D890BD32F71087302031D27
:101FB400DD2F70087202031CE02FE12FE62F70085A
:101FC400F2027108F33B77140130F136F00C890BFF
:101FD400E72F0130F502031DF02FF12FD22F7608E1
:101FE4000319F52FF62FFB2FF709F809F70A031940
:101FF400F80A7808F1007708F0000800C034F934D2
:10200400A434B034993492348234F8348034903423
:02201400FF3497
:020000040001F9
:02000E00F93FB8
:040012009F3FFF1FEE
:00000001FF
