:08000000803102288731E52F51
:10044C00013082319322823108002830823193228C
:10045C00823108000C308231932282310800FE0078
:10046C0012001E00FE0B362A003441019A010330A3
:10047C0098009D01843093000800013041019E00DA
:10048C0000324101131413184C2A4D2A492A0D0825
:10049C00F3000C08F2007308F1007208F000080079
:1004AC00033041019E0000324101131413185F2ADE
:1004BC00602A5C2A0D08F3000C08F2007308F100A6
:1004CC007208F0000800F8007803031D6E2A6F2AEA
:1004DC00732A7708FF3EF900762A77083F3EF90029
:1004EC007908803E8231932282310800F90008306D
:1004FC00FA007903031D832A842A852A7A15770347
:10050C00031D892A8A2A8E2A0330F8007808FA04F7
:10051C007A088231932282310800F6007608F300C3
:10052C000430F336890B972A73080F39F4007608D8
:10053C000F39F5004001901074088331EA238231A1
:10054C0075088331EA2382310800F6007608F3003F
:10055C000430F336890BAF2A73080F39F400760890
:10056C000F39F5004001901474088331EA2382316D
:10057C0075088331EA23823108000A307E01B80005
:10058C00FA30400191007E01C301FE30400192001F
:10059C007E01CE01400193017E01D9010F30400153
:1005AC0094007E01E401EC304001950008005734C2
:1005BC00613474346534723420344C34653476349C
:1005CC0065346C343A340034543465346D347034DE
:1005DC0065347234613474347534723465343A343D
:1005EC000034F401F501701CFC2AFD2A012B720861
:1005FC00F4077308F53D0130F235F30D890B022B2E
:10060C000130F136F00C890B072B70087104031DB7
:10061C00102B112BF92A7508F1007408F000080052
:10062C001430FB007A30890B192BFB0B192B033080
:10063C008231932283310730FB007D30890B242BD0
:10064C00FB0B242B00000230823193228331823148
:10065C002B228331F701013082317C2283318231AC
:10066C003022833182312622833108004001200858
:10067C0021040319422B432B6C2BA501A50A4F2BEC
:10068C000130A035A10D890B472B0130A4002408A3
:10069C00A507A11F522B532B462B21082302031D08
:1006AC00592B20082202031C5C2B5D2B612B20088C
:1006BC00A2022108A33B0130A136A00C890B622BAE
:1006CC000130A502031D6B2B6C2B532B2308A100AF
:1006DC002208A0000800FB01FC017608770403192E
:1006EC00782B792BA82BFD01FD0A852B0130F635D3
:1006FC00F70D890B7D2B0130FA007A08FD07F71FE7
:10070C00882B892B7C2B0130FB35FC0D890B8A2B1C
:10071C0077087902031D942B76087802031C972B1B
:10072C00982B9D2B7608F8027708F93B7B14013047
:10073C00F736F60C890B9E2B0130FD02031DA72BFF
:10074C00A82B892B7C08F7007B08F6000800533493
:10075C003334203466346F3472342034573461347B
:10076C0074346534723420344C3476346C34003444
:10077C00503472346534733473345334323420341B
:10078C0066346F3472342034543465346D347034C0
:10079C0000342034203420342034203420342034CD
:1007AC002034203420342034BA3443340034203400
:1007BC00203420342034203420342034203420348D
:1007CC002034203425340034F2007208F000033059
:1007DC00F036890BEE2B70080139F100F10CF10C9D
:1007EC0040010F0871067F3971068F007208F00006
:1007FC000230F036890BFF2B70080139F100F10E35
:10080C00F10DF10D0F087106BF3971068F007236AC
:10081C000139F000F00EF00D0F087006DF3970068C
:10082C008F0072080139F000F00E0F087006EF39D6
:10083C0070068F001014C8300032890B222C400136
:10084C001010C8300032890B282C0800823143224A
:10085C00843170084001B1007108B200823143222A
:10086C008431710840013206031D3E2C700831069C
:10087C00031D412C422C7C2C823143228431710883
:10088C004001B4007008B300FF30F6000330F700ED
:10089C003408F1003308F000F430F2000130F300BA
:1008AC008231F72284317108F9007008F800833125
:1008BC007123843177084001B6007608B5003608FC
:1008CC00F1003508F0006430F2000030F3008231A2
:1008DC00F722843171084001B6007008B500360863
:1008EC00A7003508A6008531D625843108004001C3
:1008FC00A101FC1F822C832C8A2CFB09FC09FB0A0E
:10090C000319FC0AA101A10AFA1F8D2C8E2C932C21
:10091C00F909FA09F90A0319FA0A79087A04031988
:10092C00982C992CC22CA001A00AA52C0130F935C9
:10093C00FA0D890B9D2C0130FD007D08A007FA1FD4
:10094C00A82CA92C9C2C7A087C02031DAF2C7908AE
:10095C007B02031CB22CB32CB72C7908FB027A084F
:10096C00FC3B0130FA36F90C890BB82C0130A00293
:10097C00031DC12CC22CA92C21080319C62CC72C71
:10098C00CC2CFB09FC09FB0A0319FC0A7C08FA00B5
:10099C007B08F9000800F601F11FD52CD62CDD2CB4
:1009AC00F009F109F00A0319F10AF601F60AF31F2E
:1009BC00E02CE12CEA2CF209F309F20A0319F30AF0
:1009CC000130F4007408F606F701F80170087104A0
:1009DC000319F12CF22C212DF501F50AFE2C013016
:1009EC00F035F10D890BF62C0130F4007408F50785
:1009FC00F11F012D022DF52C0130F735F80D890B67
:100A0C00032D71087302031D0D2D70087202031C57
:100A1C00102D112D162D7008F2027108F33B77146E
:100A2C000130F136F00C890B172D0130F502031D46
:100A3C00202D212D022D76080319252D262D2B2D49
:100A4C00F709F809F70A0319F80A7808F10077088A
:100A5C00F000080082315622853170084001A20056
:100A6C007108A3008231562285317108400123069A
:100A7C00031D422D70082206031D452D462DD52D34
:100A8C0082315622853171084001A5007008A400FE
:100A9C000A30F6000030F7002508F9002408F800A9
:100AAC0083317123853177084001AB007608AA00A9
:100ABC000A30F9000030FA002B08FC002A08FB0071
:100ACC0084317D24853179084001A6000A30F90073
:100ADC000030FA000A30F0000030F1002B08F3006F
:100AEC002A08F2008431D12485317108FC00700889
:100AFC00FB0084317D24853179084001A7000A3040
:100B0C00F9000030FA006430F0000030F1002B08DE
:100B1C00F3002A08F2008431D12485317108FC00DD
:100B2C007008FB0084317D24853179084001A800D0
:100B3C000A30F9000030FA00E830F0000330F10020
:100B4C002B08F3002A08F2008431D1248531710876
:100B5C00FC007008FB0084317D248531790840014C
:100B6C00A9000830F700023082316922853140013A
:100B7C002908303E8231AB22853140012808303EB5
:100B8C008231AB22853140012708303E8231AB22C5
:100B9C00853140012608303E8231AB228531080078
:100BAC000A304001A0000030A1002708A30026084D
:100BBC00A20083313C23853140012108AA00200882
:100BCC00A9000A30A0000030A1000A30F600003065
:100BDC00F7002708F9002608F800833171238531C6
:100BEC0077084001A3007608A20083313C238531AD
:100BFC0040012108AC002008AB000A30A0000030F6
:100C0C00A1006430F6000030F7002708F900260830
:100C1C00F80083317123853177084001A3007608F1
:100C2C00A20083313C23853140012108AE0020080D
:100C3C00AD000A30A0000030A100E830F60003300F
:100C4C00F7002708F9002608F80083317123853155
:100C5C0077084001A3007608A20083313C2385313C
:100C6C0040012108B0002008AF008C120C1200309B
:100C7C002907840008302A3D8038850000088E0042
:100C8C0007304001A8007D30890B4A2EA80B4A2E54
:100C9C000A30840088308500000840018E008C12D8
:100CAC000C1600302B07840008302C3D8038850052
:100CBC0000088E0007304001A8007D30890B642E9F
:100CCC00A80B642E0A30840088308500000840018F
:100CDC008E008C160C1200302D07840008302E3D2F
:100CEC008038850000088E0007304001A8007D3058
:100CFC00890B7E2EA80B7E2E0A308400883085004E
:100D0C00000840018E008C160C1600302F07840052
:100D1C000830303D8038850000088E0007304001D7
:100D2C00A8007D30890B982EA80B982E0A308400D1
:100D3C0088308500000840018E0008008231C322F3
:100D4C00863182313B22863131308600013087007A
:100D5C00383084000030850011304001B700160097
:100D6C001A00B70BB52E20308600013087004930B1
:100D7C008400003085001130B70016001A00B70B44
:100D8C00C32E833116238631F701F70A01308231E5
:100D9C00692286314101C701C801E12E4708383E5E
:100DAC008600870101088231AB2286310130410176
:100DBC00C7070030C83D4708383E86008701010848
:100DCC00031DE92EEA2ED42EF701F70A02308231E8
:100DDC00692286314101C701C801012F4708493EEC
:100DEC008600870101088231AB2286310130410136
:100DFC00C7070030C83D4708493E860087010108F7
:100E0C00031D092F0A2FF42E40018D180E2F0F2FC2
:100E1C00772FDA30860000308700A0308400003055
:100E2C0085000D30B70016001A00B70B192F423091
:100E3C008600013087005A308400003085000E3067
:100E4C00B70016001A00B70B272F8231C322863148
:100E5C00833116238631F701F70A0130823169227A
:100E6C0086314101C901CA01482F4908A03E8600BC
:100E7C00870101088231AB22863101304101C9075B
:100E8C000030CA3D4908A03E860087010108031DB9
:100E9C00502F512F3B2FF701F70A02308231692274
:100EAC0086314101C901CA01682F49085A3E8600A2
:100EBC00870101088231AB22863101304101C9071B
:100ECC000030CA3D49085A3E860087010108031DBF
:100EDC00702F712F5B2F40018C0184312C248631B3
:100EEC00732F0D197A2F7B2F0A2FCD3086000030EF
:100EFC008700AD308400003085000D30B70016003F
:100F0C001A00B70B852F5030860001308700BA309D
:100F1C008400003085000D30B70016001A00B70BA6
:100F2C00932F8231C3228631833116238631F70108
:100F3C00F70A01308231692286314101CB01CC01A3
:100F4C00B42F4B08AD3E8600870101088231AB22DD
:100F5C00863101304101CB070030CC3D4B08AD3E12
:100F6C00860087010108031DBC2FBD2FA72FF70199
:100F7C00F70A02308231692286314101CB01CC0162
:100F8C00D42F4B08BA3E8600870101088231AB2270
:100F9C00863101304101CB070030CC3D4B08BA3EC5
:100FAC00860087010108031DDC2FDD2FC72F4001B0
:100FBC008C01853130258631DF2F80310228DD30E0
:100FCC00840082308500CD308600003087001A30D6
:100FDC00823135228731AD3084008330850020305A
:100FEC008600013087003D30823135228731400147
:100FFC008631A42EC034F934A434B03499349234EC
:0A100C008234F83480349034FF344D
:020000040001F9
:02000E00F93FB8
:040012009F3FFF1FEE
:00000001FF
