:08000000803102288731E52F51
:1004B40001308231C7228231080028308231C722BC
:1004C400823108000C308231C72282310800FE00DC
:1004D40012001E00FE0B6A2A003441019A01033007
:1004E40098009D01843093000800033041019E0070
:1004F4000032410113141318802A812A7D2A0D0821
:10050400F3000C08F2007308F1007208F000080010
:100514000D3041019E000032410113141318932A37
:10052400942A902A0D08F3000C08F2007308F100D5
:100534007208F0000800F8007803031DA22AA32A19
:10054400A72A7708FF3EF900AA2A77083F3EF90058
:100554007908803E8231C72282310800F9000830D0
:10056400FA007903031DB72AB82AB92A7A15770342
:10057400031DBD2ABE2AC22A0330F8007808FA04F3
:100584007A088231C72282310800F6007608F30027
:100594000430F336890BCB2A73080F39F40076083C
:1005A4000F39F50040019010740884315B248231C6
:1005B400750884315B2482310800F6007608F30064
:1005C4000430F336890BE32A73080F39F4007608F4
:1005D4000F39F50040019014740884315B24823192
:1005E400750884315B24823108000A307E01B8002A
:1005F400CA304001910020307E01C300FE3040012A
:1006040092007E01CE01400193017E01D9010F3099
:10061400400194007E01E401EC30400195000800A3
:10062400F401F501701C172B182B1C2B7208F4070E
:100634007308F53D0130F235F30D890B1D2B0130A4
:10064400F136F00C890B222B70087104031D2B2B3F
:100654002C2B142B7508F1007408F0000800573493
:10066400613474346534723420344C3465347634F3
:1006740065346C343A340034543465346D34703435
:1006840065347234613474347534723465343A3494
:1006940000342034203420342034203420342034D6
:1006A400203400341430FB007A30890B572BFB0BB9
:1006B400572B03308231C72283310730FB007D3052
:1006C400890B622BFB0B622B000002308231C722A4
:1006D400833182315F228331F70101308231B022CC
:1006E400833182316422833182315A22833108007A
:1006F40053343334203466346F34723420345734F2
:10070400613474346534723420344C3476346C344B
:1007140000345034723465347334733453343234A3
:10072400203466346F3472342034543465346D3478
:1007340070340034203420342034203420342034E5
:100744002034203420342034203425340034400133
:10075400200821040319AF2BB02BD92BA501A50A1E
:10076400BC2B0130A035A10D890BB42B0130A400A2
:100774002408A507A11FBF2BC02BB32B21082302DC
:10078400031DC62B20082202031CC92BCA2BCE2B07
:100794002008A2022108A33B0130A136A00C890B3A
:1007A400CF2B0130A502031DD82BD92BC02B230836
:1007B400A1002208A0000800FB01FC0176087704D0
:1007C4000319E52BE62B152CFD01FD0AF22B013054
:1007D400F635F70D890BEA2B0130FA007A08FD078C
:1007E400F71FF52BF62BE92B0130FB35FC0D890B9C
:1007F400F72B77087902031D012C76087802031C75
:10080400042C052C0A2C7608F8027708F93B7B1493
:100814000130F736F60C890B0B2C0130FD02031D59
:10082400142C152CF62B7C08F7007B08F600080026
:1008340082317722843170084001B1007108B2001E
:10084400823177228431710840013206031D2C2C39
:1008540070083106031D2F2C302C5A2C823177223C
:10086400843171084001B4007008B300FF30F60011
:100874000330F7003408F1003308F000F430F200DC
:100884000130F3008331122384317108F9007008B8
:10089400F8008331DE23843177084001B6007608FE
:1008A400B5003608A7003508A6008531D725843160
:1008B4000800F2007208F0000330F036890B5F2C58
:1008C40070080139F100F10CF10C40010F087106B8
:1008D4007F3971068F007208F0000230F036890B00
:1008E400702C70080139F100F10EF10DF10D0F08B3
:1008F4007106BF3971068F0072360139F000F00EAF
:10090400F00D0F087006DF3970068F007208013988
:10091400F000F00E0F087006EF3970068F00101407
:10092400C8300032890B932C40011010C8300032BB
:10093400890B992C08004001A101FC1FA22CA32CB7
:10094400AA2CFB09FC09FB0A0319FC0AA101A10A50
:10095400FA1FAD2CAE2CB32CF909FA09F90A0319C4
:10096400FA0A79087A040319B82CB92CE22CA001EC
:10097400A00AC52C0130F935FA0D890BBD2C0130C4
:10098400FD007D08A007FA1FC82CC92CBC2C7A08CE
:100994007C02031DCF2C79087B02031CD22CD32CA0
:1009A400D72C7908FB027A08FC3B0130FA36F90CA3
:1009B400890BD82C0130A002031DE12CE22CC92C98
:1009C40021080319E62CE72CEC2CFB09FC09FB0A93
:1009D4000319FC0A7C08FA007B08F9000800F601F8
:1009E400F11FF52CF62CFD2CF009F109F00A03197E
:1009F400F10AF601F60AF31F002D012D0A2DF20962
:100A0400F309F20A0319F30A0130F4007408F60634
:100A1400F701F801700871040319112D122D412DED
:100A2400F501F50A1E2D0130F035F10D890B162D57
:100A34000130F4007408F507F11F212D222D152D26
:100A44000130F735F80D890B232D71087302031D4E
:100A54002D2D70087202031C302D312D362D700897
:100A6400F2027108F33B77140130F136F00C890B74
:100A7400372D0130F502031D402D412D222D76081E
:100A84000319452D462D4B2DF709F809F70A0319CB
:100A9400F80A7808F1007708F000080082318A2209
:100AA400853170084001A2007108A30082318A22B6
:100AB4008531710840012306031D622D700822064A
:100AC400031D652D662DD62D82318A22853171084C
:100AD4004001A5007008A4000A30F6000030F700B9
:100AE4002508F9002408F8008331DE2385317708CE
:100AF4004001AA007608A9000A30F9000030FA0083
:100B04002A08FC002908FB0084319D2485317908DA
:100B14004001A6000A30F9000030FA000A30F00063
:100B24000030F1002A08F3002908F2008431F1248E
:100B340085317108FC007008FB0084319D248531E7
:100B440079084001A7000A30F9000030FA00643047
:100B5400F0000030F1002A08F3002908F200843183
:100B6400F12485317108FC007008FB0084319D2458
:100B7400853179084001A8000830F700023082313D
:100B84009D22853140012808303E8231DF228531A3
:100B940040012708303E8231DF228531400126089A
:100BA400303E8231DF22853108000A304001A00046
:100BB4000030A1002708A3002608A2008331A9233E
:100BC400853140012108AA002008A9000A30A000AC
:100BD4000030A1000A30F6000030F7002708F900C1
:100BE4002608F8008331DE23853177084001A3000D
:100BF4007608A2008331A923853140012108AC0085
:100C04002008AB000A30A0000030A1006430F600D8
:100C14000030F7002708F9002608F8008331DE23A6
:100C2400853177084001A3007608A2008331A92307
:100C3400853140012108AE002008AD000A30A00033
:100C44000030A100E830F6000330F7002708F9006F
:100C54002608F8008331DE23853177084001A3009C
:100C64007608A2008331A923853140012108B00010
:100C74002008AF008C120C120030290784000830C1
:100C84002A3D8038850000088E0007304001A80006
:100C94007D30890B4B2EA80B4B2E0A3084008830F4
:100CA4008500000840018E008C120C1600302B07C2
:100CB400840008302C3D8038850000088E00073001
:100CC4004001A8007D30890B652EA80B652E0A30E3
:100CD400840088308500000840018E008C160C12B8
:100CE40000302D07840008302E3D80388500000830
:100CF4008E0007304001A8007D30890B7F2EA80BA1
:100D04007F2E0A30840088308500000840018E0060
:100D14008C160C1600302F0784000830303D8038C4
:100D2400850000088E0007304001A8007D30890B43
:100D3400992EA80B992E0A3084008830850000086B
:100D440040018E0008008231F722863182316F2201
:100D5400863131308600013087003830840000301D
:100D6400850011304001B70016001A00B70BB62EEB
:100D7400203086000130870049308400003085002F
:100D84001130B70016001A00B70BC42E8331542358
:100D94008631F701F70A013082319D228631400104
:100DA400E701E801E22E6708383E86008701010862
:100DB4008231DF22863101304001E7070030E83D0F
:100DC4006708383E860087010108031DEA2EEB2ED2
:100DD400D52EF701F70A023082319D228631400177
:100DE400E701E801022F6708493E860087010108F0
:100DF4008231DF22863101304001E7070030E83DCF
:100E04006708493E860087010108031D0A2F0B2F3E
:100E1400F52E8D180E2F0F2F772FD430860000302B
:100E240087005A308400003085000D30B70016006A
:100E34001A00B70B192FE130860000308700BA3052
:100E44008400003085000930B70016001A00B70B83
:100E5400272F8231F7228631833154238631F701DB
:100E6400F70A013082319D2286314101C301C40158
:100E7400482F43085A3E8600870101088231DF2249
:100E8400863101304101C3070030C43D43085A3E56
:100E9400860087010108031D502F512F3B2FF701B6
:100EA400F70A023082319D2286314101C301C40117
:100EB400682F4308BA3E8600870101088231DF2289
:100EC400863101304101C3070030C43D4308BA3EB6
:100ED400860087010108031D702F712F5B2F4001CD
:100EE4008C0184311A248631732F0D197A2F7B2FAC
:100EF4000B2FC730860000308700A03084000030FC
:100F040085000D30B70016001A00B70B852F42304C
:100F1400860001308700AD308400003085000D303C
:100F2400B70016001A00B70B932F8231F7228631CF
:100F3400833154238631F701F70A013082319D222F
:100F440086314101C501C601B42F4508A03E860083
:100F5400870101088231DF22863101304101C50752
:100F64000030C63D4508A03E860087010108031DE8
:100F7400BC2FBD2FA72FF701F70A023082319D2223
:100F840086314101C501C601D42F4508AD3E860016
:100F9400870101088231DF22863101304101C50712
:100FA4000030C63D4508AD3E860087010108031D9B
:100FB400DC2FDD2FC72F40018C0185315025863170
:100FC400DF2F803102283130840083308500C73020
:100FD40086000030870023308231692287317A30DD
:100FE40084008330850020308600013087002F3054
:100FF40082316922873140018631A52EC034F9340B
:10100400A434B034993492348234F8348034903433
:02101400FF34A7
:020000040001F9
:02000E00F93FB8
:040012009F3FFF1FEE
:00000001FF
