:08000000803102288731E52F51
:1005040001308231EF228231080028308231EF221B
:10051400823108000C308231EF2282310800FE0063
:1005240012001E00FE0B922A003441019A0103308E
:1005340098009D01843093000800013041019E0021
:100544000032410113141318A82AA92AA52A0D0858
:10055400F3000C08F2007308F1007208F0000800C0
:10056400F8007803031DB72AB82ABC2A7708FF3E8F
:10057400F900BF2A77083F3EF9007908803E8231AE
:10058400EF2282310800033041019E000032410114
:1005940013141318CE2ACF2ACB2A0D08F3000C0803
:1005A400F2007308F1007208F0000800F900083046
:1005B400FA007903031DDF2AE02AE12A7A1577037A
:1005C400031DE52AE62AEA2A0330F8007808FA042B
:1005D4007A088231EF2282310800F6007608F300AF
:1005E4000430F336890BF32A73080F39F4007608C4
:1005F4000F39F5004001901074088431462482318B
:1006040075088431462482310800F6007608F30028
:100614000430F336890B0B2B73080F39F40076087A
:100624000F39F50040019014740884314624833155
:10063400750884314624833108000A307E01B800ED
:10064400FA30400191007E01C301FE304001920066
:100654007E01CE01400193017E01D9010F3040019A
:1006640094007E01E401EC30400195000800F4019F
:10067400F501701C3E2B3F2B432B7208F4077308C3
:10068400F53D0130F235F30D890B442B0130F13681
:10069400F00C890B492B70087104031D522B532B4A
:1006A4003B2B7508F1007408F00008001430FB00BF
:1006B4007A30890B5B2BFB0B5B2B03308231EF22EF
:1006C40083310730FB007D30890B662BFB0B662BD7
:1006D400000002308231EF2283318231872283315C
:1006E400F70101308231D822833182318C22833167
:1006F4008231822283310800203420342034203493
:100704002034203420342034203420342034253440
:1007140000345734613474346534723420344C34C6
:100724006534763465346C343A3400345434653486
:100734006D347034653472346134743475347234A5
:1007440065343A34003453343334203466346F34EB
:100754007234203457346134743465347234203440
:100764004C3476346C34003450347234653473341D
:10077400733453343234203466346F347234203456
:10078400543465346D3470340034203420342034CF
:1007940020342034203420342034203420342034B5
:1007A400BA34433400344001200821040319DB2BFC
:1007B400DC2B052CA501A50AE82B0130A035A10DE1
:1007C400890BE02B0130A4002408A507A11FEB2B03
:1007D400EC2BDF2B21082302031DF22B200822021D
:1007E400031CF52BF62BFA2B2008A2022108A33BAD
:1007F4000130A136A00C890BFB2B0130A502031D8F
:10080400042C052CEC2B2308A1002208A0000800CE
:10081400FB01FC01760877040319112C122C412CDE
:10082400FD01FD0A1E2C0130F635F70D890B162C3F
:100834000130FA007A08FD07F71F212C222C152C11
:100844000130FB35FC0D890B232C77087902031D3D
:100854002D2C76087802031C302C312C362C76088B
:10086400F8027708F93B7B140130F736F60C890B54
:10087400372C0130FD02031D402C412C222C7C0816
:10088400F7007B08F6000800F2007208F00003305D
:10089400F036890B4A2C70080139F100F10CF10C87
:1008A40040010F0871067F3971068F007208F0004D
:1008B4000230F036890B5B2C70080139F100F10E1F
:1008C400F10DF10D0F087106BF3971068F007236F4
:1008D4000139F000F00EF00D0F087006DF397006D4
:1008E4008F0072080139F000F00E0F087006EF391E
:1008F40070068F001014C8300032890B7E2C400122
:100904001010C8300032890B842C08004001A1016A
:10091400FC1F8D2C8E2C952CFB09FC09FB0A03195A
:10092400FC0AA101A10AFA1F982C992C9E2CF90902
:10093400FA09F90A0319FA0A79087A040319A32CA3
:10094400A42CCD2CA001A00AB02C0130F935FA0D4D
:10095400890BA82C0130FD007D08A007FA1FB32CD9
:10096400B42CA72C7A087C02031DBA2C79087B02CC
:10097400031CBD2CBE2CC22C7908FB027A08FC3B5C
:100984000130FA36F90C890BC32C0130A002031D87
:10099400CC2CCD2CB42C21080319D12CD22CD72C3F
:1009A400FB09FC09FB0A0319FC0A7C08FA007B0812
:1009B400F9000800F601F11FE02CE12CE82CF00905
:1009C400F109F00A0319F10AF601F60AF31FEB2CF8
:1009D400EC2CF52CF209F309F20A0319F30A01309D
:1009E400F4007408F606F701F8017008710403199D
:1009F400FC2CFD2C2C2DF501F50A092D0130F035C8
:100A0400F10D890B012D0130F4007408F507F11F75
:100A14000C2D0D2D002D0130F735F80D890B0E2D01
:100A240071087302031D182D70087202031C1B2D1C
:100A34001C2D212D7008F2027108F33B771401304C
:100A4400F136F00C890B222D0130F502031D2B2DFC
:100A54002C2D0D2D76080319302D312D362DF70947
:100A6400F809F70A0319F80A7808F1007708F00082
:100A740008008231C522853170084001A200710846
:100A8400A3008231C5228531710840012306031D6C
:100A94004D2D70082206031D502D512DE02D82315D
:100AA400C522853171084001A5007008A4000A30F0
:100AB400F6000030F7002508F9002408F800843116
:100AC4000A24853177084001AB007608AA000A3071
:100AD400F9000030FA002B08FC002A08FB008431DE
:100AE4008824853179084001A6000A30F9000030D5
:100AF400FA000A30F0000030F1002B08F3002A0855
:100B0400F2008431DC2485317108FC007008FB009C
:100B140084318824853179084001A7000A30F9001E
:100B24000030FA006430F0000030F1002B08F300CC
:100B34002A08F2008431DC2485317108FC00700835
:100B4400FB0084318824853179084001A8000A30EB
:100B5400F9000030FA00E830F0000330F1002B080F
:100B6400F3002A08F2008431DC2485317108FC008A
:100B74007008FB0084318824853179084001A9007C
:100B84000830F70002308231B22285314001290851
:100B9400303E83310723853140012808303E8331BC
:100BA4000723853140012708303E833107238531EF
:100BB40040012608303E8331072385310800823105
:100BC4009F22853170084001A6007108A700823178
:100BD4009F228531710840012706031DF32D7008FB
:100BE4002606031DF62DF72DA42E82319F22853172
:100BF40071084001A9007008A800FF30F600033016
:100C0400F7002908F1002808F000F430F200013060
:100C1400F3008331392385317108F9007008F80035
:100C240084310A24853177084001AF007608AE008C
:100C34002F08F1002E08F0006430F2000030F300B9
:100C440083313923853171084001AF007008AE004B
:100C54000A30A0000030A1002F08A3002E08A20033
:100C64008331D523853140012008AA000A30A00031
:100C74000030A1000A30F6000030F7002F08F90018
:100C84002E08F80084310A24853177084001A30036
:100C94007608A2008331D523853140012008AB00BA
:100CA4000A30A0000030A1006430F6000030F700E4
:100CB4002F08F9002E08F80084310A2485317708BA
:100CC4004001A3007608A2008331D5238531400179
:100CD4002008AC000A30A0000030A100E830F60083
:100CE4000330F7002F08F9002E08F80084310A2495
:100CF400853177084001A3007608A2008331D5230B
:100D0400853140012008AD000830F70002308231FF
:100D1400B222853140012D08303E833107238531CD
:100D240040012C08303E83310723853140012B08D4
:100D3400303E83310723853140012A08303E833118
:100D440007238531080083311F238631823197229E
:100D54008631313086000130870031308400003024
:100D6400850011304001B00016001A00B00BB62EF9
:100D74002030860001308700423084000030850036
:100D84001130B00016001A00B00BC42E8331582362
:100D94008631F701F70A01308231B22286314001EF
:100DA400EE01EF01E22E6E08313E86008701010854
:100DB40083310723863101304001EE070030EF3DD7
:100DC4006E08313E860087010108031DEA2EEB2ED2
:100DD400D52EF701F70A02308231B2228631400162
:100DE400EE01EF01022F6E08423E860087010108E2
:100DF40083310723863101304001EE070030EF3D97
:100E04006E08423E860087010108031D0A2F0B2F3E
:100E1400F52E8D180E2F0F2F772FBA308600003045
:100E2400870061308400003085000D30B00016006A
:100E34001A00B00B192F423086000130870053305E
:100E44008400003085000E30B00016001A00B00B8C
:100E5400272F83311F238631833158238631F701AD
:100E6400F70A01308231B22286314101E101E20107
:100E7400482F6108613E86008701010883310723FA
:100E8400863101304101E1070030E23D6108613EF5
:100E9400860087010108031D502F512F3B2FF701B6
:100EA400F70A02308231B22286314101E101E201C6
:100EB400682F6108533E86008701010883310723A8
:100EC400863101304101E1070030E23D6108533EC3
:100ED400860087010108031D702F712F5B2F4001CD
:100EE4008C018531E1258631732F0D197A2F7B2FE3
:100EF4000B2FAD30860000308700C73084000030EF
:100F040085000D30B00016001A00B00B852FA030FC
:100F1400860000308700D4308400003085000D3016
:100F2400B00016001A00B00B932F83311F238631B3
:100F3400833158238631F701F70A01308231B22216
:100F440086314101E301E401B42F6308C73E860002
:100F54008701010883310723863101304101E3070A
:100F64000030E43D6308C73E860087010108031D85
:100F7400BC2FBD2FA72FF701F70A02308231B2220E
:100F840086314101E301E401D42F6308D43E860095
:100F94008701010883310723863101304101E307CA
:100FA4000030E43D6308D43E860087010108031D38
:100FB400DC2FDD2FC72F40018C0185313B25863185
:100FC400DF2F803102287E30840083308500A030FA
:100FD4008600003087002730823191228731A53086
:100FE4008400833085002030860001308700303053
:0C0FF40082319122873140018631A52E08
:020000040001F9
:02000E00F93FB8
:040012009F3FFF1FEE
:00000001FF
